:100000000C945F000C947E000C947E000C947E0097
:100010000C947E000C947E000C947E000C947E0068
:100020000C947E000C947E000C947E000C947E0058
:100030000C947E000C94A5030C947E000C947E001E
:100040000C947E000C947E000C947E000C947E0038
:100050000C947E000C947E000C947E000C947E0028
:100060000C947E000C947E000C947E000C947E0018
:100070000C947E000C947E000C947E000C947E0008
:100080000C947E000C947E000C947E00A400AB00C7
:10009000B200BD00F00038013F0151019901A001FB
:1000A000B201E001E7010502090251020C0212024D
:1000B0001C0226022C023602400246024C02112487
:1000C0001FBECFEFD0E4DEBFCDBF11E0A0E0B1E0B6
:1000D000ECE7FBE000E00BBF02C007900D92A631F9
:1000E000B107D9F721E0A6E1B1E001C01D92A0352A
:1000F000B207E1F70E948E030C94BC050C9400003B
:10010000CF93C82F8A3019F48DE00E94800080912F
:10011000C00085FFFCCFC093C60080E090E0CF9187
:10012000089586B18095887096B1909594702091CD
:100130001801309119012D30310508F059C1F9012C
:10014000EA5BFF4F0C94A40581E090E090931901C5
:10015000809318014DC182E090E090931901809343
:10016000180146C1811104C0911102C023E030E0A2
:1001700030931901209318013BC1811109C09111DD
:1001800007C083E090E0909319018093180130C17B
:10019000882349F0911107C084E090E09093190101
:1001A0008093180125C1811109C0992339F087E096
:1001B00090E090931901809318011AC1882349F0A7
:1001C000992339F08AE090E0909319018093180107
:1001D0000FC183E090E0909319018093180108C14A
:1001E000882349F0992339F08AE090E0909319012F
:1001F00080931801FDC0209117012A3058F48823FC
:1002000049F0911107C084E090E090931901809328
:100210001801EEC02A3058F4882311F0992339F0E0
:1002200085E090E09093190180931801E1C02A3095
:1002300058F0882349F0911107C086E090E0909330
:10024000190180931801D4C02A3058F0882311F086
:10025000992339F082E090E090931901809318017E
:10026000C7C084E090E09093190180931801C0C04A
:1002700082E090E09093190180931801B9C088231F
:1002800049F0911107C086E090E0909319018093A6
:100290001801AEC082E090E090931901809318019C
:1002A000A7C0882349F0992339F08AE090E0909321
:1002B0001901809318019CC0209117012A3058F42D
:1002C000811109C0992339F087E090E090931901DA
:1002D000809318018DC02A3058F4811102C0911109
:1002E00007C088E090E0909319018093180180C0C6
:1002F0002A3058F0811109C0992339F089E090E043
:10030000909319018093180173C02A3058F081111D
:1003100002C0911107C082E090E090931901809390
:10032000180166C087E090E090931901809318014E
:100330005FC082E090E0909319018093180158C04B
:10034000811109C0992339F089E090E09093190157
:10035000809318014DC082E090E090931901809342
:10036000180146C0209117012A3058F4882349F01B
:10037000992339F08AE090E0909319018093180155
:1003800037C02A3058F0882349F0992339F08BE0A0
:1003900090E090931901809318012AC0882311F0EE
:1003A000911107C082E090E09093190180931801A9
:1003B0001FC08AE090E0909319018093180118C043
:1003C0008CE090E0909319018093180111C0809106
:1003D00017018A3038F48CE090E0909319018093F3
:1003E000180106C082E090E09093190180931801F3
:1003F000E0911801F09119013197EC30F10508F006
:1004000050C0ED5AFF4F0C94A40581E08093030186
:100410000895109217010895809117018F5F8093BE
:100420001701089581E080931B018CE390E0909385
:10043000010180930001089581E080931B0188E50C
:1004400092E090930101809300010895809117013B
:100450008F5F80931701089581E080931C0184ECE5
:100460009FEF9093010180930001089581E08093B4
:100470001C0188EA9DEF909301018093000108958B
:10048000809117018F5F80931701089581E0809319
:100490001A01109217010895809117018F5F8093C0
:1004A0001701089581E080931D01089580911B013B
:1004B000882381F0609100017091010187E491E04F
:1004C0000E942C0410921B0181E0809316018093FE
:1004D0000201089580911C01882381F06091000140
:1004E0007091010187E491E00E942C0410921C019C
:1004F00081E08093160180930201089580911A0192
:10050000882361F087E491E00E94E30410921A01CD
:100510001092020181E080931601089580911D01DF
:10052000882391F080911601811105C087E491E044
:100530000E94500403C081508093160110921D0147
:1005400081E080930201089580910301882349F09E
:1005500087E491E00E9401051092030181E08093FD
:100560000201089580910201882329F087E491E037
:100570000E946D0404C087E491E00E94CF04E7E488
:10058000F1E0848182B9838185B982818BB9089534
:10059000823051F08330B9F0813021F586B18095F9
:1005A0008BB985B982B908958FEB98EA9093480189
:1005B0008093470168EA7DEF87E491E00E942C0474
:1005C0000E94B202089586B1882361F088E598E917
:1005D000909348018093470168E572E087E491E0D9
:1005E0000E942C040895CF93C0E03AC02C2F30E035
:1005F000F901EE0FFF1FC901880F991F880F991F7E
:10060000880F991FE80FF91FE15EFE4F80819181ED
:10061000A281B3810196A11DB11D80839183A28324
:10062000B383448155816681778184179507A60736
:10063000B707A9F4F901EE0FFF1F220F331F220F96
:10064000331F220F331FE20FF31FE15EFE4F1082B4
:100650001182128213820084F185E02D0995CF5F0B
:10066000C43020F2CF910895E7E4F1E011821082C6
:10067000128213821482089561E070E080E090E0BD
:100680000E94F4030E94050408958FEF81B912B807
:1006900084B915B817B888B98AB91BB80895EFE1BD
:1006A000F1E0108211821282138288EE93E0A0E0C2
:1006B000B0E084839583A683B78382E592E0918737
:1006C0008087128613861486158681E090E0A0E06C
:1006D000B0E086879787A08BB18B26E532E0338B1D
:1006E000228B148A158A168A178A808F918FA28F7F
:1006F000B38F82EB92E0958F848F168E178E10A2A7
:1007000011A282E390E0A0E0B0E082A393A3A4A3AF
:10071000B5A381E990E097A386A308950E943C03C6
:100720000E9445030E944F030E9434030E94D50497
:1007300080911E018823E1F310921E010E94F302B2
:10074000F7CF81E080931E0108951F920F920FB69C
:100750000F9211240BB60F922F933F934F935F93F9
:100760006F937F938F939F93AF93BF93EF93FF9379
:1007700080914C0190914D01A0914E01B0914F019B
:100780000197A109B10980934C0190934D01A09369
:100790004E01B0934F01892B8A2B8B2B91F40E9431
:1007A000A1038091120190911301A0911401B091C5
:1007B000150180934C0190934D01A0934E01B0938D
:1007C0004F01FF91EF91BF91AF919F918F917F91D9
:1007D0006F915F914F913F912F910F900BBE0F90B2
:1007E0000FBE0F901F901895609312017093130124
:1007F000809314019093150160934C0170934D0107
:1008000080934E0190934F0108958BE08093810077
:100810008DE790E0909389008093880082E0809338
:100820006F001092850010928400809112019091C7
:100830001301A0911401B091150180934C01909384
:100840004D01A0934E01B0934F018FB780688FBFC9
:100850000895109281000895CF93DF93FC019B01CE
:10086000EB01772324F4CC27DD27C61BD70B80812F
:100870009181BE010E949005C69FC001C79F900D47
:10088000D69F900D112491838083820F931F803C0B
:1008900028EA920710F491838083DF91CF91089525
:1008A000FC01208131812F5F3F4F3183208381E024
:1008B00090E0203C48EA340710F480E090E060ECDF
:1008C00078EA869FA001879F500D969F500D1124B6
:1008D000241B350B3183208308950F931F93CF93EF
:1008E000DF93FC018081918160E17EE00E949005B0
:1008F0008C0141E0460F9C01A9E8B8E80E94AD05D3
:10090000EC01D695C795D295C295CF70CD27DF70F3
:10091000CD272CE32C9FC0012D9F900D1124980111
:10092000281B390BC9019DEC499F312D11243695A7
:1009300036953695632F6295607F330F532F550F91
:10094000550F350F431B462B4283C99F312D112470
:10095000369536953695432F4295407F330F532F6A
:10096000550F550F350FC31BC42BC383899F312DE2
:100970001124369536953695232F220F922F990FF5
:10098000990F920F282F291B40E1249FC0011124A9
:10099000832B8483DF91CF911F910F910895FC01E8
:1009A0008AEA82838383848308950E94620580EDAE
:1009B0000E946E0587E00E946E0580E00E946E0531
:1009C0000E946A0508951F93CF93DF93FC01148161
:1009D000D381C2810E94620580ED0E946E0580E095
:1009E0000E946E05812F0E946E058D2F0E946E055C
:1009F0008C2F0E946E050E946A05DF91CF911F9196
:100A00000895FF920F931F93CF93DF938C010E9461
:100A1000620580ED0E946E0580E00E946E050E94D6
:100A20006A050E94620581ED0E946E050E947805AC
:100A3000D82F0E947805F82E0E948205C82F0E94A8
:100A40006A058C2F82958F70880F982F990F990FB8
:100A5000890FCF70C80F8F2D82958F70880F982FB8
:100A6000990F990F980F8F2D8F70F92EF80E8D2FEB
:100A700082958F70880F982F990F990F890FDF70CB
:100A8000D80FC15020E13EE0C29FC001C39F900D2E
:100A900011242CE3F29E800D911D11248D0F911DC8
:100AA000F80191838083DF91CF911F910F91FF9087
:100AB00008951092B9008CE08093B80084E0809390
:100AC000BC00089584EA8093BC008091BC00882318
:100AD000E4F7089584E98093BC0008958093BB00F7
:100AE00084E88093BC008091BC008823E4F70895DB
:100AF00084EC8093BC008091BC008823E4F7809153
:100B0000BB00089584E88093BC008091BC008823DA
:100B1000E4F78091BB0008958091B900887F089523
:100B2000AA1BBB1B51E107C0AA1FBB1FA617B70713
:100B300010F0A61BB70B881F991F5A95A9F780952F
:100B40009095BC01CD010895EE0FFF1F0024001CFD
:100B50000BBE0790F691E02D0994A29FB001B39FC0
:100B6000C001A39F700D811D1124911DB29F700DB6
:0C0B7000811D1124911D0895F894FFCF01
:100B7C0001000101000000020000000080000000E4
:060B8C0000000100000062
:00000001FF
