:100000000C945D000C947C000C947C000C947C009F
:100010000C947C000C947C000C947C000C947C0070
:100020000C947C000C947C000C947C000C947C0060
:100030000C947C000C9405030C947C000C947C00C4
:100040000C947C000C947C000C947C000C947C0040
:100050000C947C000C947C000C947C000C947C0030
:100060000C947C000C947C000C947C000C947C0020
:100070000C947C000C947C000C947C000C947C0010
:100080000C947C000C947C000C947C00A200A900D1
:10009000B000BB00EE002B01320144018101880158
:1000A0009A01C801DA01DE01FE01E101E701E70181
:1000B000EB01F101F101F501FB0111241FBECFEFAE
:1000C000D0E4DEBFCDBF11E0A0E0B1E0E4E6FAE0AD
:1000D00000E00BBF02C007900D92A231B107D9F723
:1000E00021E0A2E1B1E001C01D92AD34B207E1F719
:1000F0000E94F0020C9430050C940000CF93C82F9E
:100100008A3019F48DE00E947E008091C00085FF46
:10011000FCCFC093C60080E090E0CF91089586B1F7
:100120008095887096B190959470209114013091CB
:1001300015012C30310508F031C1F901EA5BFF4FA0
:100140000C94F10481E090E09093150180931401E8
:1001500025C182E090E090931501809314011EC1A7
:10016000811104C0911102C023E030E030931501E9
:100170002093140113C1811109C0911107C083E0BC
:1001800090E0909315018093140108C1882349F0F1
:10019000911107C084E090E09093150180931401C1
:1001A000FDC0811109C0992339F087E090E0909358
:1001B000150180931401F2C0882349F0992339F086
:1001C0008AE090E09093150180931401E7C083E0EA
:1001D00090E09093150180931401E0C020911301E9
:1001E0002A3058F4882349F0911107C084E090E048
:1001F0009093150180931401D1C02A3058F48823BC
:1002000011F0992339F085E090E0909315018093E7
:100210001401C4C02A3058F0882349F0911107C056
:1002200086E090E09093150180931401B7C02A30C6
:1002300058F0882311F0992339F082E090E09093F0
:10024000150180931401AAC084E090E090931501F9
:1002500080931401A3C082E090E0909315018093F5
:1002600014019CC0882349F0911107C086E090E0FA
:10027000909315018093140191C082E090E09093D7
:100280001501809314018AC0209113012A3058F47B
:10029000811109C0992339F087E090E0909315010E
:1002A000809314017BC02A3058F4811102C091114F
:1002B00007C088E090E090931501809314016EC010
:1002C0002A3058F0811109C0992339F089E090E073
:1002D000909315018093140161C02A3058F0811168
:1002E00002C0911107C082E090E0909315018093C5
:1002F000140154C087E090E090931501809314019D
:100300004DC082E090E0909315018093140146C0A7
:10031000811109C0992339F089E090E0909315018B
:10032000809314013BC082E090E09093150180938C
:10033000140134C0209113012A3058F4882349F065
:10034000992339F08AE090E090931501809314018D
:1003500025C02A3058F0882349F0992339F08BE0E2
:1003600090E0909315018093140118C0882311F038
:10037000911107C082E090E09093150180931401E1
:100380000DC08AE090E0909315018093140106C09F
:1003900082E090E09093150180931401E0911401A4
:1003A000F09115013197EB30F10540F5EE5AFF4F12
:1003B0000C94F10481E080931601089510921301CA
:1003C0000895809113018F5F80931301089581E058
:1003D000809318010895809113018F5F809313011A
:1003E000089581E0809319010895809113018F5F32
:1003F00080931301089581E080931701089581E0AF
:1004000080931A01089580911801882361F060E0BB
:1004100070E084E491E00E948C031092180181E066
:1004200080931201089580911901882361F061E0A1
:1004300070E084E491E00E948C031092190181E045
:1004400080931201089580911701882331F0109252
:10045000170181E080931201089580911A01882389
:1004600079F080911201811105C084E491E00E942D
:10047000B50303C081508093120110921A010895B0
:1004800080911601811110921601089584E491E083
:100490000E94CB03E4E4F1E0848182B9838185B9D1
:1004A00082818BB90895CF93C0E03AC02C2F30E001
:1004B000F901EE0FFF1FC901880F991F880F991FBF
:1004C000880F991FE80FF91FE45EFE4F808191812C
:1004D000A281B3810196A11DB11D80839183A28366
:1004E000B383448155816681778184179507A60778
:1004F000B707A9F4F901EE0FFF1F220F331F220FD8
:10050000331F220F331FE20FF31FE45EFE4F1082F2
:100510001182128213820084F185E02D0995CF5F4C
:10052000C43020F2CF910895E4E4F1E08CEB94E341
:1005300091838083128213821482089561E070E0B7
:1005400080E090E00E9454030E94650308958FEFBD
:1005500081B912B884B915B817B888B98AB91BB867
:100560000895ECE1F1E0108211821282138288EE8C
:1005700093E0A0E0B0E084839583A683B7838FEFF8
:1005800091E091878087128613861486158681E014
:1005900090E0A0E0B0E086879787A08BB18B23E046
:1005A00032E0338B228B148A158A168A178A808F41
:1005B000918FA28FB38F86E492E0958F848F168EF1
:1005C000178E10A211A282E390E0A0E0B0E082A317
:1005D00093A3A4A3B5A38FE890E097A386A308955F
:1005E0000E949E020E94A7020E94B1020E949402F1
:1005F00080911B018823E1F310921B010E9453029A
:10060000F7CF81E080931B0108951F920F920FB6E0
:100610000F9211240BB60F922F933F934F935F933A
:100620006F937F938F939F93AF93BF93EF93FF93BA
:100630008091490190914A01A0914B01B0914C01E8
:100640000197A109B1098093490190934A01A093B0
:100650004B01B0934C01892B8A2B8B2B91F40E9478
:10066000010380910E0190910F01A0911001B091B2
:1006700011018093490190934A01A0934B01B093DB
:100680004C01FF91EF91BF91AF919F918F917F911D
:100690006F915F914F913F912F910F900BBE0F90F3
:1006A0000FBE0F901F90189560930E0170930F016D
:1006B00080931001909311016093490170934A0156
:1006C00080934B0190934C0108958BE080938100BF
:1006D0008DE790E0909389008093880082E080937A
:1006E0006F00109285001092840080910E0190910D
:1006F0000F01A0911001B0911101809349019093D5
:100700004A01A0934B01B0934C018FB780688FBF13
:100710000895109281000895FC016115710531F46E
:1007200080819181CC969183808310C06130710566
:1007300069F480819181CC97181619061CF020EC81
:1007400088EA02C0282F892F2083818380819181AC
:100750006CE370E00E94BE042CE3269FC001279F3B
:10076000900D1124918380830895CF93DF93EC0142
:10077000688179816F5F7F4F072E000C880B990B82
:1007800020EC38EA40E050E00E94D204798368838C
:10079000DF91CF910895FC018081918160E17EE03D
:1007A0000E94BE0431E0360F6CE370E00E94BE048C
:1007B0009DEC399F212D1124269526952695422FB3
:1007C0004295407F220F522F550F550F250F321B98
:1007D000342B3283699F212D112426952695269549
:1007E000322F3295307F220F422F440F440F240FB7
:1007F000621B632B6383899F912D11249695969597
:100800009695292F2295207F990F392F330F330F7B
:10081000930F891B822B848308956115710519F04C
:100820006330710521F42AE0FC01228308956130D0
:10083000710519F06330710521F42AE0FC0123836E
:100840000895625071096230710518F42AE0FC01C4
:10085000248308950E94900480ED0E949C0487E008
:100860000E949C0480E00E949C040E9498040895C9
:10087000CF93DF93EC010E94900480ED0E949C04D2
:1008800080E00E949C048C810E949C048B810E94C9
:100890009C048A810E949C040E949804DF91CF915D
:1008A0000895FF920F931F93CF93DF93EC010E9463
:1008B000900480ED0E949C0480E00E949C040E94B1
:1008C00098040E94900481ED0E949C040E94A6045A
:1008D000182F0E94A604082F0E94B004F82E0E9430
:1008E000980420E13EE0F29EC001F39E900D112499
:1008F0002CE3029F800D911D1124810F911D99837E
:100900008883DF91CF911F910F91FF9008951092EE
:10091000B9008CE08093B80084E08093BC00089517
:1009200084EA8093BC008091BC008823E4F708959A
:1009300084E98093BC0008958093BB0084E8809391
:10094000BC008091BC008823E4F7089584EC809378
:10095000BC008091BC008823E4F78091BB0008951F
:1009600084E88093BC008091BC008823E4F78091E8
:10097000BB0008958091B900887F089597FB072EEA
:1009800016F4009407D077FD09D00E94FA0407FC02
:1009900005D03EF4909581959F4F0895709561958F
:1009A0007F4F0895052E97FB1EF400940E94E904E2
:1009B00057FD07D00E940E0507FC03D04EF40C949F
:1009C000E90450954095309521953F4F4F4F5F4F2B
:1009D000089590958095709561957F4F8F4F9F4FAB
:1009E0000895EE0FFF1F0024001C0BBE0790F69128
:1009F000E02D0994AA1BBB1B51E107C0AA1FBB1F16
:100A0000A617B70710F0A61BB70B881F991F5A959A
:100A1000A9F780959095BC01CD010895A1E21A2E09
:100A2000AA1BBB1BFD010DC0AA1FBB1FEE1FFF1F92
:100A3000A217B307E407F50720F0A21BB30BE40BE2
:100A4000F50B661F771F881F991F1A9469F7609529
:100A50007095809590959B01AC01BD01CF010895E3
:040A6000F894FFCF38
:100A640000000002000000007E0000000000010001
:020A7400000080
:00000001FF
