:100000000C9446000C9465000C9465000C946500FB
:100010000C9465000C9465000C9465000C946500CC
:100020000C9465000C9465000C9465000C946500BC
:100030000C9465000C945C010C9465000C946500B4
:100040000C9465000C9465000C9465000C9465009C
:100050000C9465000C9465000C9465000C9465008C
:100060000C9465000C9465000C9465000C9465007C
:100070000C9465000C9465000C9465000C9465006C
:100080000C9465000C9465000C94650011241FBE4F
:10009000CFEFD0E4DEBFCDBF11E0A0E0B1E0EEEFE6
:1000A000F6E000E00BBF02C007900D92A231B1074D
:1000B000D9F721E0A2E1B1E001C01D92AE33B20751
:1000C000E1F70E9446010C947D030C940000CF934D
:1000D000C82F8A3019F48DE00E9467008091C0001B
:1000E00085FFFCCFC093C60080E090E0CF910895DB
:1000F00081E080931501089580911301882349F0D0
:1001000060E070E085E391E00E94E301109213014A
:10011000089580911401882349F061E070E085E33F
:1001200091E00E94E3011092140108958091120160
:10013000882339F085E391E00E948E02109212012B
:10014000089580911501882331F085E391E00E94A4
:100150000B0210921501089585E391E00E9421029F
:10016000E5E3F1E0848182B9838185B982818BB92D
:100170000895CF93C0E03AC02C2F30E0F901EE0F84
:10018000FF1FC901880F991F880F991F880F991F9A
:10019000E80FF91FE95EFE4F80819181A281B38152
:1001A0000896A11DB11D80839183A283B3834481EE
:1001B00055816681778184179507A607B707A9F44B
:1001C000F901EE0FFF1F220F331F220F331F220FE3
:1001D000331FE20FF31FE95EFE4F1082118212827D
:1001E00013820084F185E02D0995CF5FC33020F2A2
:1001F000CF910895E5E3F1E08CEB94E39183808364
:10020000128213821482089568E070E080E090E02A
:100210000E94AB010E94BC0108958FEF81B912B812
:1002200084B915B817B888B98AB91BB80895E7E139
:10023000F1E0108211821282138288EE93E0A0E036
:10024000B0E084839583A683B78388E790E09187A5
:100250008087128613861486158680E190E0A0E0E0
:10026000B0E086879787A08BB18B2CE730E0338B8B
:10027000228B148A158A168A178A808F918FA28FF3
:10028000B38F8CEA90E0958F848F08950E940401CB
:100290000E940D010E9417010E94FA008091160130
:1002A0008823E1F3109216010E94B900F7CF089558
:1002B00081E08093160108951F920F920FB60F925E
:1002C00011240BB60F922F933F934F935F936F932D
:1002D0007F938F939F93AF93BF93EF93FF938091FF
:1002E0003A0190913B01A0913C01B0913D010197F1
:1002F000A109B10980933A0190933B01A0933C017D
:10030000B0933D01892B8A2B8B2B91F40E945801CD
:1003100080910E0190910F01A0911001B0911101F7
:1003200080933A0190933B01A0933C01B0933D012F
:10033000FF91EF91BF91AF919F918F917F916F91BD
:100340005F914F913F912F910F900BBE0F900FBE79
:100350000F901F90189560930E0170930F0180937A
:1003600010019093110160933A0170933B018093C7
:100370003C0190933D0108958BE0809381008DE7CF
:1003800090E0909389008093880082E080936F00D2
:10039000109285001092840080910E0190910F01BF
:1003A000A0911001B091110180933A0190933B010B
:1003B000A0933C01B0933D018FB780688FBF089533
:1003C000109281000895FC016115710531F480815E
:1003D00091810196918380830FC06130710561F432
:1003E000808191810197918380831816190614F0FA
:1003F00080EC98EA91838083808191816CE370E046
:100400000E9414032CE3269FC001279F900D112406
:10041000918380830895CF93DF93EC016881798184
:100420006F5F7F4F072E000C880B990B20EC38EA8A
:1004300040E050E00E94280379836883DF91CF91E8
:100440000895FC018081918160E17EE00E941403A7
:1004500031E0360F6CE370E00E9414039DEC399F8D
:10046000212D1124269526952695422F4295407FD1
:10047000220F522F550F550F250F321B342B32836D
:10048000699F212D1124269526952695322F329588
:10049000307F220F422F440F440F240F621B632B27
:1004A0006383899F912D1124969596959695292F72
:1004B0002295207F990F392F330F330F930F891B0C
:1004C000822B848308956115710519F063307105DD
:1004D00021F42AE0FC01228308956130710519F0AE
:1004E0006330710521F42AE0FC01238308956250F2
:1004F00071096230710518F42AE0FC012483089523
:100500000E94E60280ED0E94F20287E00E94F20261
:1005100080E00E94F2020E94EE020895CF93DF93E2
:10052000EC010E94E60280ED0E94F20280E00E944F
:10053000F2028C810E94F2028B810E94F2028A8177
:100540000E94F2020E94EE02DF91CF910895FF9285
:100550000F931F93CF93DF93EC010E94E60280ED8F
:100560000E94F20280E00E94F2020E94EE020E94CB
:10057000E60281ED0E94F2020E94FC02182F0E9406
:10058000FC02082F0E940603F82E0E94EE0220E1D2
:100590003EE0F29EC001F39E900D11242CE3029FD9
:1005A000800D911D1124810F911D99838883DF9106
:1005B000CF911F910F91FF9008951092B9008CE098
:1005C0008093B80084E08093BC00089584EA80930F
:1005D000BC008091BC008823E4F7089584E98093EF
:1005E000BC0008958093BB0084E88093BC00809198
:1005F000BC008823E4F7089584EC8093BC008091CC
:10060000BC008823E4F78091BB00089584E88093C0
:10061000BC008091BC008823E4F78091BB00089562
:100620008091B900887F089597FB072E16F40094F7
:1006300007D077FD09D00E94470307FC05D03EF4A0
:10064000909581959F4F0895709561957F4F08957E
:10065000052E97FB1EF400940E943F0357FD07D020
:100660000E945B0307FC03D04EF40C943F035095AB
:100670004095309521953F4F4F4F5F4F089590958E
:100680008095709561957F4F8F4F9F4F0895AA1B5E
:10069000BB1B51E107C0AA1FBB1FA617B70710F06D
:1006A000A61BB70B881F991F5A95A9F7809590959F
:1006B000BC01CD010895A1E21A2EAA1BBB1BFD01AE
:1006C0000DC0AA1FBB1FEE1FFF1FA217B307E40731
:1006D000F50720F0A21BB30BE40BF50B661F771F89
:1006E000881F991F1A9469F7609570958095909569
:0E06F0009B01AC01BD01CF010895F894FFCF2E
:1006FE000000000200000000670000000000010082
:02070E000000E9
:00000001FF
